{
  "_format": "hh-sol-artifact-1",
  "contractName": "FlashLoanArbitrage",
  "sourceName": "contracts/FlashLoanArbitrage.sol",
  "abi": [
    {
      "inputs": [
        {
          "internalType": "address",
          "name": "_lendingPool",
          "type": "address"
        },
        {
          "internalType": "address",
          "name": "_dai",
          "type": "address"
        }
      ],
      "stateMutability": "nonpayable",
      "type": "constructor"
    },
    {
      "inputs": [],
      "name": "dai",
      "outputs": [
        {
          "internalType": "address",
          "name": "",
          "type": "address"
        }
      ],
      "stateMutability": "view",
      "type": "function"
    },
    {
      "inputs": [
        {
          "internalType": "uint256",
          "name": "amount",
          "type": "uint256"
        }
      ],
      "name": "doFlashLoan",
      "outputs": [],
      "stateMutability": "nonpayable",
      "type": "function"
    },
    {
      "inputs": [
        {
          "internalType": "address[]",
          "name": "assets",
          "type": "address[]"
        },
        {
          "internalType": "uint256[]",
          "name": "amounts",
          "type": "uint256[]"
        },
        {
          "internalType": "uint256[]",
          "name": "premiums",
          "type": "uint256[]"
        },
        {
          "internalType": "address",
          "name": "initiator",
          "type": "address"
        },
        {
          "internalType": "bytes",
          "name": "params",
          "type": "bytes"
        }
      ],
      "name": "executeOperation",
      "outputs": [
        {
          "internalType": "bool",
          "name": "",
          "type": "bool"
        }
      ],
      "stateMutability": "nonpayable",
      "type": "function"
    },
    {
      "inputs": [],
      "name": "lendingPool",
      "outputs": [
        {
          "internalType": "contract ILendingPool",
          "name": "",
          "type": "address"
        }
      ],
      "stateMutability": "view",
      "type": "function"
    },
    {
      "inputs": [],
      "name": "owner",
      "outputs": [
        {
          "internalType": "address",
          "name": "",
          "type": "address"
        }
      ],
      "stateMutability": "view",
      "type": "function"
    }
  ],
  "bytecode": "0x60803461009257601f61064138819003918201601f19168301916001600160401b0383118484101761009757808492604094855283398101031261009257610052602061004b836100ad565b92016100ad565b9060018060a01b0319913383600054161760005560018060a01b038092168360015416176001551690600254161760025560405161057f90816100c28239f35b600080fd5b634e487b7160e01b600052604160045260246000fd5b51906001600160a01b03821682036100925756fe608060408181526004918236101561001657600080fd5b600092833560e01c9182638da5cb5b1461045657508163920f5c8414610286578163a59a99731461025d578163e0eb0aab14610087575063f4b9fa751461005c57600080fd5b3461008357816003193601126100835760025490516001600160a01b039091168152602090f35b5080fd5b919050346102595760209160031983813601126102555784546001600160a01b03949085163303610227578351916100be836104d6565b60018084528284018336823787600254166100d886610508565b5286516100e4816104d6565b82815284368183013786356100f882610508565b52875192610105846104d6565b8084528536818601378a61011885610508565b528981541696873b15610223579593918b979593919a8a519b8c9863ab9c4b5d60e01b8a5260e48a0190308d8c015260e060248c0152518091526101048a0194928b905b8282106101f5575050505050610196879593610186848b979594868a8a97030160448b0152610515565b9084888303016064890152610515565b30608487015285810392830160a4870152528260c485015201925af180156101eb576101c0578380f35b67ffffffffffffffff83116101d85750523880808380f35b634e487b7160e01b845260419052602483fd5b82513d86823e3d90fd5b929584989a9c50899b5098869295979984829396511681520197019201928d999795938f9b9997959261015c565b8b80fd5b9050606492519162461bcd60e51b835282015260096024820152682737ba1037bbb732b960b91b6044820152fd5b8480fd5b8280fd5b50503461008357816003193601126100835760015490516001600160a01b039091168152602090f35b9050346102595760a03660031901126102595767ffffffffffffffff928135848111610083576102b9903690840161047a565b92906024958635818111610255576102d4903690850161047a565b9095604435838111610452576102ed903690870161047a565b90946001600160a01b03939091906064358581160361044e5760843586811161041057366023820112156104105780890135878111610414573691018d011161044e57885b8481106103435760208c5160018152f35b61034e81838d6104b0565b3561035a82858b6104b0565b35810180911161043c5761036f8287876104b0565b3590878216809203610223578a918f918f928e938b6001541690519563095ea7b360e01b87528601528401528260448160209485945af18015610432576103d6575b505060001981146103c457600101610332565b634e487b7160e01b8a52601189528c8afd5b803d821161042b575b601f8101601f191683018a811184821017610418578f528201829003126104145751801515036104105738806103b1565b8980fd5b8a80fd5b50634e487b7160e01b8d5260418c528f8dfd5b503d6103df565b8e513d8e823e3d90fd5b634e487b7160e01b8b5260118a528d8bfd5b8880fd5b8680fd5b84903461008357816003193601126100835790546001600160a01b03168152602090f35b9181601f840112156104ab5782359167ffffffffffffffff83116104ab576020808501948460051b0101116104ab57565b600080fd5b91908110156104c05760051b0190565b634e487b7160e01b600052603260045260246000fd5b6040810190811067ffffffffffffffff8211176104f257604052565b634e487b7160e01b600052604160045260246000fd5b8051156104c05760200190565b90815180825260208080930193019160005b828110610535575050505090565b83518552938101939281019260010161052756fea264697066735822122083a5fe7b21c9b95fce8990e6cedaad8135f13a5a473759de9efa4ee2b4ed5ab464736f6c63430008140033",
  "linkReferences": {},
  "deployedLinkReferences": {}
}