{"contracts/LiquidationArbitrage.sol":{"LiquidationArbitrage":{"abi":[{"inputs":[{"internalType":"address","name":"_lendingPool","type":"address"}],"stateMutability":"nonpayable","type":"constructor"},{"inputs":[{"internalType":"address","name":"asset","type":"address"},{"internalType":"uint256","name":"amount","type":"uint256"},{"internalType":"bytes","name":"params","type":"bytes"}],"name":"executeFlashLoan","outputs":[],"stateMutability":"nonpayable","type":"function"},{"inputs":[{"internalType":"address[]","name":"assets","type":"address[]"},{"internalType":"uint256[]","name":"amounts","type":"uint256[]"},{"internalType":"uint256[]","name":"premiums","type":"uint256[]"},{"internalType":"address","name":"","type":"address"},{"internalType":"bytes","name":"params","type":"bytes"}],"name":"executeOperation","outputs":[{"internalType":"bool","name":"","type":"bool"}],"stateMutability":"nonpayable","type":"function"},{"inputs":[],"name":"lendingPool","outputs":[{"internalType":"contract ILendingPool","name":"","type":"address"}],"stateMutability":"view","type":"function"},{"inputs":[],"name":"owner","outputs":[{"internalType":"address","name":"","type":"address"}],"stateMutability":"view","type":"function"}],"evm":{"bytecode":{"linkReferences":{},"object":"60803461007a57601f6107f038819003918201601f19168301916001600160401b0383118484101761007f5780849260209460405283398101031261007a57516001600160a01b0381169081900361007a5760018060a01b031933816000541617600055600154161760015560405161075a90816100968239f35b600080fd5b634e487b7160e01b600052604160045260246000fdfe608080604052600436101561001357600080fd5b600090813560e01c9081638da5cb5b146105a657508063920f5c8414610267578063a59a99731461023e5763f3df12531461004d57600080fd5b346101db57600319906060368301126101db576001600160a01b03600435818116908190036102395760443567ffffffffffffffff8111610235576100969036906004016105fb565b83859392935416330361020457604051926100b084610667565b600180855260209384860190853683376100c9876106e3565b526040516100d681610667565b8281528536818301376024356100eb826106e3565b52604051926100f984610667565b8084528636818601378961010c856106e3565b528881541697883b156102005760405163ab9c4b5d60e01b815230600482015260e06024820152905160e4820181905290996101048b01949291908c905b8282106101e957505050505086888a88828e8a849b859b61018d859c61017d8d889d8b9f8a8a91030160448b01526106f0565b90868883030160648901526106f0565b933060848701528585030160a486015281845285840137848482840101528460c4840152601f8019910116010301925af180156101de576101cb5750f35b6101d49061063d565b6101db5780f35b80fd5b6040513d84823e3d90fd5b845181168752958a0195938a01939083019061014a565b8a80fd5b60405162461bcd60e51b81526020600482015260096024820152682737ba1037bbb732b960b91b6044820152606490fd5b8380fd5b600080fd5b50346101db57806003193601126101db576001546040516001600160a01b039091168152602090f35b50346101db5760a03660031901126101db5767ffffffffffffffff906004358281116105a25761029b9036906004016105ca565b602493919335828111610235576102b69036906004016105ca565b60449591953584811161059e576102d19036906004016105ca565b9690946064356001600160a01b0381160361055557608435908111610555576102fe9036906004016105fb565b6001546001600160a01b03163303610559578160a091810103126105555761032581610629565b61033160208301610629565b9061033e60408401610629565b9261034b60808201610629565b60405163095ea7b360e01b81526001600160a01b0382166004820152606083013560248201529091906020818d81806044810103916001600160a01b038a165af1801561054a5761052b575b506001600160a01b0382163b156102005760405162a718a960e01b81526001600160a01b0393841660048201529383166024850152938216604484015260609093013560648301526084820189905290918891839160a49183918591165af180156105205761050d575b50855b84811061041657602060405160018152f35b6104218184846106bd565b3561042d828a896106bd565b3581018091116104f9576104428287876106bd565b356001600160a01b03811681036104f55760015460405163095ea7b360e01b81526001600160a01b0391821660048201526024810193909352602091839160449183918d91165af180156104ea576104bb575b5060001981146104a757600101610404565b634e487b7160e01b87526011600452602487fd5b6104dc9060203d6020116104e3575b6104d48183610683565b8101906106a5565b5038610495565b503d6104ca565b6040513d8a823e3d90fd5b8880fd5b634e487b7160e01b88526011600452602488fd5b6105199096919661063d565b9438610401565b6040513d89823e3d90fd5b6105439060203d6020116104e3576104d48183610683565b5038610397565b6040513d8e823e3d90fd5b8680fd5b60405162461bcd60e51b815260206004820152601b60248201527f43616c6c6572206d757374206265206c656e64696e6720706f6f6c00000000006044820152606490fd5b8580fd5b5080fd5b9050346105a257816003193601126105a25790546001600160a01b03168152602090f35b9181601f840112156102395782359167ffffffffffffffff8311610239576020808501948460051b01011161023957565b9181601f840112156102395782359167ffffffffffffffff8311610239576020838186019501011161023957565b35906001600160a01b038216820361023957565b67ffffffffffffffff811161065157604052565b634e487b7160e01b600052604160045260246000fd5b6040810190811067ffffffffffffffff82111761065157604052565b90601f8019910116810190811067ffffffffffffffff82111761065157604052565b90816020910312610239575180151581036102395790565b91908110156106cd5760051b0190565b634e487b7160e01b600052603260045260246000fd5b8051156106cd5760200190565b90815180825260208080930193019160005b828110610710575050505090565b83518552938101939281019260010161070256fea26469706673582212208026d5a4c7168835377cbc652d9d06d100f0a1f96e6cd14add4bb6ce542fed5064736f6c63430008140033","opcodes":"PUSH1 0x80 CALLVALUE PUSH2 0x7A JUMPI PUSH1 0x1F PUSH2 0x7F0 CODESIZE DUP2 SWAP1 SUB SWAP2 DUP3 ADD PUSH1 0x1F NOT AND DUP4 ADD SWAP2 PUSH1 0x1 PUSH1 0x1 PUSH1 0x40 SHL SUB DUP4 GT DUP5 DUP5 LT OR PUSH2 0x7F JUMPI DUP1 DUP5 SWAP3 PUSH1 0x20 SWAP5 PUSH1 0x40 MSTORE DUP4 CODECOPY DUP2 ADD SUB SLT PUSH2 0x7A JUMPI MLOAD PUSH1 0x1 PUSH1 0x1 PUSH1 0xA0 SHL SUB DUP2 AND SWAP1 DUP2 SWAP1 SUB PUSH2 0x7A JUMPI PUSH1 0x1 DUP1 PUSH1 0xA0 SHL SUB NOT CALLER DUP2 PUSH1 0x0 SLOAD AND OR PUSH1 0x0 SSTORE PUSH1 0x1 SLOAD AND OR PUSH1 0x1 SSTORE PUSH1 0x40 MLOAD PUSH2 0x75A SWAP1 DUP2 PUSH2 0x96 DUP3 CODECOPY RETURN JUMPDEST PUSH1 0x0 DUP1 REVERT JUMPDEST PUSH4 0x4E487B71 PUSH1 0xE0 SHL PUSH1 0x0 MSTORE PUSH1 0x41 PUSH1 0x4 MSTORE PUSH1 0x24 PUSH1 0x0 REVERT INVALID PUSH1 0x80 DUP1 PUSH1 0x40 MSTORE PUSH1 0x4 CALLDATASIZE LT ISZERO PUSH2 0x13 JUMPI PUSH1 0x0 DUP1 REVERT JUMPDEST PUSH1 0x0 SWAP1 DUP2 CALLDATALOAD PUSH1 0xE0 SHR SWAP1 DUP2 PUSH4 0x8DA5CB5B EQ PUSH2 0x5A6 JUMPI POP DUP1 PUSH4 0x920F5C84 EQ PUSH2 0x267 JUMPI DUP1 PUSH4 0xA59A9973 EQ PUSH2 0x23E JUMPI PUSH4 0xF3DF1253 EQ PUSH2 0x4D JUMPI PUSH1 0x0 DUP1 REVERT JUMPDEST CALLVALUE PUSH2 0x1DB JUMPI PUSH1 0x3 NOT SWAP1 PUSH1 0x60 CALLDATASIZE DUP4 ADD SLT PUSH2 0x1DB JUMPI PUSH1 0x1 PUSH1 0x1 PUSH1 0xA0 SHL SUB PUSH1 0x4 CALLDATALOAD DUP2 DUP2 AND SWAP1 DUP2 SWAP1 SUB PUSH2 0x239 JUMPI PUSH1 0x44 CALLDATALOAD PUSH8 0xFFFFFFFFFFFFFFFF DUP2 GT PUSH2 0x235 JUMPI PUSH2 0x96 SWAP1 CALLDATASIZE SWAP1 PUSH1 0x4 ADD PUSH2 0x5FB JUMP JUMPDEST DUP4 DUP6 SWAP4 SWAP3 SWAP4 SLOAD AND CALLER SUB PUSH2 0x204 JUMPI PUSH1 0x40 MLOAD SWAP3 PUSH2 0xB0 DUP5 PUSH2 0x667 JUMP JUMPDEST PUSH1 0x1 DUP1 DUP6 MSTORE PUSH1 0x20 SWAP4 DUP5 DUP7 ADD SWAP1 DUP6 CALLDATASIZE DUP4 CALLDATACOPY PUSH2 0xC9 DUP8 PUSH2 0x6E3 JUMP JUMPDEST MSTORE PUSH1 0x40 MLOAD PUSH2 0xD6 DUP2 PUSH2 0x667 JUMP JUMPDEST DUP3 DUP2 MSTORE DUP6 CALLDATASIZE DUP2 DUP4 ADD CALLDATACOPY PUSH1 0x24 CALLDATALOAD PUSH2 0xEB DUP3 PUSH2 0x6E3 JUMP JUMPDEST MSTORE PUSH1 0x40 MLOAD SWAP3 PUSH2 0xF9 DUP5 PUSH2 0x667 JUMP JUMPDEST DUP1 DUP5 MSTORE DUP7 CALLDATASIZE DUP2 DUP7 ADD CALLDATACOPY DUP10 PUSH2 0x10C DUP6 PUSH2 0x6E3 JUMP JUMPDEST MSTORE DUP9 DUP2 SLOAD AND SWAP8 DUP9 EXTCODESIZE ISZERO PUSH2 0x200 JUMPI PUSH1 0x40 MLOAD PUSH4 0xAB9C4B5D PUSH1 0xE0 SHL DUP2 MSTORE ADDRESS PUSH1 0x4 DUP3 ADD MSTORE PUSH1 0xE0 PUSH1 0x24 DUP3 ADD MSTORE SWAP1 MLOAD PUSH1 0xE4 DUP3 ADD DUP2 SWAP1 MSTORE SWAP1 SWAP10 PUSH2 0x104 DUP12 ADD SWAP5 SWAP3 SWAP2 SWAP1 DUP13 SWAP1 JUMPDEST DUP3 DUP3 LT PUSH2 0x1E9 JUMPI POP POP POP POP POP DUP7 DUP9 DUP11 DUP9 DUP3 DUP15 DUP11 DUP5 SWAP12 DUP6 SWAP12 PUSH2 0x18D DUP6 SWAP13 PUSH2 0x17D DUP14 DUP9 SWAP14 DUP12 SWAP16 DUP11 DUP11 SWAP2 SUB ADD PUSH1 0x44 DUP12 ADD MSTORE PUSH2 0x6F0 JUMP JUMPDEST SWAP1 DUP7 DUP9 DUP4 SUB ADD PUSH1 0x64 DUP10 ADD MSTORE PUSH2 0x6F0 JUMP JUMPDEST SWAP4 ADDRESS PUSH1 0x84 DUP8 ADD MSTORE DUP6 DUP6 SUB ADD PUSH1 0xA4 DUP7 ADD MSTORE DUP2 DUP5 MSTORE DUP6 DUP5 ADD CALLDATACOPY DUP5 DUP5 DUP3 DUP5 ADD ADD MSTORE DUP5 PUSH1 0xC4 DUP5 ADD MSTORE PUSH1 0x1F DUP1 NOT SWAP2 ADD AND ADD SUB ADD SWAP3 GAS CALL DUP1 ISZERO PUSH2 0x1DE JUMPI PUSH2 0x1CB JUMPI POP RETURN JUMPDEST PUSH2 0x1D4 SWAP1 PUSH2 0x63D JUMP JUMPDEST PUSH2 0x1DB JUMPI DUP1 RETURN JUMPDEST DUP1 REVERT JUMPDEST PUSH1 0x40 MLOAD RETURNDATASIZE DUP5 DUP3 RETURNDATACOPY RETURNDATASIZE SWAP1 REVERT JUMPDEST DUP5 MLOAD DUP2 AND DUP8 MSTORE SWAP6 DUP11 ADD SWAP6 SWAP4 DUP11 ADD SWAP4 SWAP1 DUP4 ADD SWAP1 PUSH2 0x14A JUMP JUMPDEST DUP11 DUP1 REVERT JUMPDEST PUSH1 0x40 MLOAD PUSH3 0x461BCD PUSH1 0xE5 SHL DUP2 MSTORE PUSH1 0x20 PUSH1 0x4 DUP3 ADD MSTORE PUSH1 0x9 PUSH1 0x24 DUP3 ADD MSTORE PUSH9 0x2737BA1037BBB732B9 PUSH1 0xB9 SHL PUSH1 0x44 DUP3 ADD MSTORE PUSH1 0x64 SWAP1 REVERT JUMPDEST DUP4 DUP1 REVERT JUMPDEST PUSH1 0x0 DUP1 REVERT JUMPDEST POP CALLVALUE PUSH2 0x1DB JUMPI DUP1 PUSH1 0x3 NOT CALLDATASIZE ADD SLT PUSH2 0x1DB JUMPI PUSH1 0x1 SLOAD PUSH1 0x40 MLOAD PUSH1 0x1 PUSH1 0x1 PUSH1 0xA0 SHL SUB SWAP1 SWAP2 AND DUP2 MSTORE PUSH1 0x20 SWAP1 RETURN JUMPDEST POP CALLVALUE PUSH2 0x1DB JUMPI PUSH1 0xA0 CALLDATASIZE PUSH1 0x3 NOT ADD SLT PUSH2 0x1DB JUMPI PUSH8 0xFFFFFFFFFFFFFFFF SWAP1 PUSH1 0x4 CALLDATALOAD DUP3 DUP2 GT PUSH2 0x5A2 JUMPI PUSH2 0x29B SWAP1 CALLDATASIZE SWAP1 PUSH1 0x4 ADD PUSH2 0x5CA JUMP JUMPDEST PUSH1 0x24 SWAP4 SWAP2 SWAP4 CALLDATALOAD DUP3 DUP2 GT PUSH2 0x235 JUMPI PUSH2 0x2B6 SWAP1 CALLDATASIZE SWAP1 PUSH1 0x4 ADD PUSH2 0x5CA JUMP JUMPDEST PUSH1 0x44 SWAP6 SWAP2 SWAP6 CALLDATALOAD DUP5 DUP2 GT PUSH2 0x59E JUMPI PUSH2 0x2D1 SWAP1 CALLDATASIZE SWAP1 PUSH1 0x4 ADD PUSH2 0x5CA JUMP JUMPDEST SWAP7 SWAP1 SWAP5 PUSH1 0x64 CALLDATALOAD PUSH1 0x1 PUSH1 0x1 PUSH1 0xA0 SHL SUB DUP2 AND SUB PUSH2 0x555 JUMPI PUSH1 0x84 CALLDATALOAD SWAP1 DUP2 GT PUSH2 0x555 JUMPI PUSH2 0x2FE SWAP1 CALLDATASIZE SWAP1 PUSH1 0x4 ADD PUSH2 0x5FB JUMP JUMPDEST PUSH1 0x1 SLOAD PUSH1 0x1 PUSH1 0x1 PUSH1 0xA0 SHL SUB AND CALLER SUB PUSH2 0x559 JUMPI DUP2 PUSH1 0xA0 SWAP2 DUP2 ADD SUB SLT PUSH2 0x555 JUMPI PUSH2 0x325 DUP2 PUSH2 0x629 JUMP JUMPDEST PUSH2 0x331 PUSH1 0x20 DUP4 ADD PUSH2 0x629 JUMP JUMPDEST SWAP1 PUSH2 0x33E PUSH1 0x40 DUP5 ADD PUSH2 0x629 JUMP JUMPDEST SWAP3 PUSH2 0x34B PUSH1 0x80 DUP3 ADD PUSH2 0x629 JUMP JUMPDEST PUSH1 0x40 MLOAD PUSH4 0x95EA7B3 PUSH1 0xE0 SHL DUP2 MSTORE PUSH1 0x1 PUSH1 0x1 PUSH1 0xA0 SHL SUB DUP3 AND PUSH1 0x4 DUP3 ADD MSTORE PUSH1 0x60 DUP4 ADD CALLDATALOAD PUSH1 0x24 DUP3 ADD MSTORE SWAP1 SWAP2 SWAP1 PUSH1 0x20 DUP2 DUP14 DUP2 DUP1 PUSH1 0x44 DUP2 ADD SUB SWAP2 PUSH1 0x1 PUSH1 0x1 PUSH1 0xA0 SHL SUB DUP11 AND GAS CALL DUP1 ISZERO PUSH2 0x54A JUMPI PUSH2 0x52B JUMPI JUMPDEST POP PUSH1 0x1 PUSH1 0x1 PUSH1 0xA0 SHL SUB DUP3 AND EXTCODESIZE ISZERO PUSH2 0x200 JUMPI PUSH1 0x40 MLOAD PUSH3 0xA718A9 PUSH1 0xE0 SHL DUP2 MSTORE PUSH1 0x1 PUSH1 0x1 PUSH1 0xA0 SHL SUB SWAP4 DUP5 AND PUSH1 0x4 DUP3 ADD MSTORE SWAP4 DUP4 AND PUSH1 0x24 DUP6 ADD MSTORE SWAP4 DUP3 AND PUSH1 0x44 DUP5 ADD MSTORE PUSH1 0x60 SWAP1 SWAP4 ADD CALLDATALOAD PUSH1 0x64 DUP4 ADD MSTORE PUSH1 0x84 DUP3 ADD DUP10 SWAP1 MSTORE SWAP1 SWAP2 DUP9 SWAP2 DUP4 SWAP2 PUSH1 0xA4 SWAP2 DUP4 SWAP2 DUP6 SWAP2 AND GAS CALL DUP1 ISZERO PUSH2 0x520 JUMPI PUSH2 0x50D JUMPI JUMPDEST POP DUP6 JUMPDEST DUP5 DUP2 LT PUSH2 0x416 JUMPI PUSH1 0x20 PUSH1 0x40 MLOAD PUSH1 0x1 DUP2 MSTORE RETURN JUMPDEST PUSH2 0x421 DUP2 DUP5 DUP5 PUSH2 0x6BD JUMP JUMPDEST CALLDATALOAD PUSH2 0x42D DUP3 DUP11 DUP10 PUSH2 0x6BD JUMP JUMPDEST CALLDATALOAD DUP2 ADD DUP1 SWAP2 GT PUSH2 0x4F9 JUMPI PUSH2 0x442 DUP3 DUP8 DUP8 PUSH2 0x6BD JUMP JUMPDEST CALLDATALOAD PUSH1 0x1 PUSH1 0x1 PUSH1 0xA0 SHL SUB DUP2 AND DUP2 SUB PUSH2 0x4F5 JUMPI PUSH1 0x1 SLOAD PUSH1 0x40 MLOAD PUSH4 0x95EA7B3 PUSH1 0xE0 SHL DUP2 MSTORE PUSH1 0x1 PUSH1 0x1 PUSH1 0xA0 SHL SUB SWAP2 DUP3 AND PUSH1 0x4 DUP3 ADD MSTORE PUSH1 0x24 DUP2 ADD SWAP4 SWAP1 SWAP4 MSTORE PUSH1 0x20 SWAP2 DUP4 SWAP2 PUSH1 0x44 SWAP2 DUP4 SWAP2 DUP14 SWAP2 AND GAS CALL DUP1 ISZERO PUSH2 0x4EA JUMPI PUSH2 0x4BB JUMPI JUMPDEST POP PUSH1 0x0 NOT DUP2 EQ PUSH2 0x4A7 JUMPI PUSH1 0x1 ADD PUSH2 0x404 JUMP JUMPDEST PUSH4 0x4E487B71 PUSH1 0xE0 SHL DUP8 MSTORE PUSH1 0x11 PUSH1 0x4 MSTORE PUSH1 0x24 DUP8 REVERT JUMPDEST PUSH2 0x4DC SWAP1 PUSH1 0x20 RETURNDATASIZE PUSH1 0x20 GT PUSH2 0x4E3 JUMPI JUMPDEST PUSH2 0x4D4 DUP2 DUP4 PUSH2 0x683 JUMP JUMPDEST DUP2 ADD SWAP1 PUSH2 0x6A5 JUMP JUMPDEST POP CODESIZE PUSH2 0x495 JUMP JUMPDEST POP RETURNDATASIZE PUSH2 0x4CA JUMP JUMPDEST PUSH1 0x40 MLOAD RETURNDATASIZE DUP11 DUP3 RETURNDATACOPY RETURNDATASIZE SWAP1 REVERT JUMPDEST DUP9 DUP1 REVERT JUMPDEST PUSH4 0x4E487B71 PUSH1 0xE0 SHL DUP9 MSTORE PUSH1 0x11 PUSH1 0x4 MSTORE PUSH1 0x24 DUP9 REVERT JUMPDEST PUSH2 0x519 SWAP1 SWAP7 SWAP2 SWAP7 PUSH2 0x63D JUMP JUMPDEST SWAP5 CODESIZE PUSH2 0x401 JUMP JUMPDEST PUSH1 0x40 MLOAD RETURNDATASIZE DUP10 DUP3 RETURNDATACOPY RETURNDATASIZE SWAP1 REVERT JUMPDEST PUSH2 0x543 SWAP1 PUSH1 0x20 RETURNDATASIZE PUSH1 0x20 GT PUSH2 0x4E3 JUMPI PUSH2 0x4D4 DUP2 DUP4 PUSH2 0x683 JUMP JUMPDEST POP CODESIZE PUSH2 0x397 JUMP JUMPDEST PUSH1 0x40 MLOAD RETURNDATASIZE DUP15 DUP3 RETURNDATACOPY RETURNDATASIZE SWAP1 REVERT JUMPDEST DUP7 DUP1 REVERT JUMPDEST PUSH1 0x40 MLOAD PUSH3 0x461BCD PUSH1 0xE5 SHL DUP2 MSTORE PUSH1 0x20 PUSH1 0x4 DUP3 ADD MSTORE PUSH1 0x1B PUSH1 0x24 DUP3 ADD MSTORE PUSH32 0x43616C6C6572206D757374206265206C656E64696E6720706F6F6C0000000000 PUSH1 0x44 DUP3 ADD MSTORE PUSH1 0x64 SWAP1 REVERT JUMPDEST DUP6 DUP1 REVERT JUMPDEST POP DUP1 REVERT JUMPDEST SWAP1 POP CALLVALUE PUSH2 0x5A2 JUMPI DUP2 PUSH1 0x3 NOT CALLDATASIZE ADD SLT PUSH2 0x5A2 JUMPI SWAP1 SLOAD PUSH1 0x1 PUSH1 0x1 PUSH1 0xA0 SHL SUB AND DUP2 MSTORE PUSH1 0x20 SWAP1 RETURN JUMPDEST SWAP2 DUP2 PUSH1 0x1F DUP5 ADD SLT ISZERO PUSH2 0x239 JUMPI DUP3 CALLDATALOAD SWAP2 PUSH8 0xFFFFFFFFFFFFFFFF DUP4 GT PUSH2 0x239 JUMPI PUSH1 0x20 DUP1 DUP6 ADD SWAP5 DUP5 PUSH1 0x5 SHL ADD ADD GT PUSH2 0x239 JUMPI JUMP JUMPDEST SWAP2 DUP2 PUSH1 0x1F DUP5 ADD SLT ISZERO PUSH2 0x239 JUMPI DUP3 CALLDATALOAD SWAP2 PUSH8 0xFFFFFFFFFFFFFFFF DUP4 GT PUSH2 0x239 JUMPI PUSH1 0x20 DUP4 DUP2 DUP7 ADD SWAP6 ADD ADD GT PUSH2 0x239 JUMPI JUMP JUMPDEST CALLDATALOAD SWAP1 PUSH1 0x1 PUSH1 0x1 PUSH1 0xA0 SHL SUB DUP3 AND DUP3 SUB PUSH2 0x239 JUMPI JUMP JUMPDEST PUSH8 0xFFFFFFFFFFFFFFFF DUP2 GT PUSH2 0x651 JUMPI PUSH1 0x40 MSTORE JUMP JUMPDEST PUSH4 0x4E487B71 PUSH1 0xE0 SHL PUSH1 0x0 MSTORE PUSH1 0x41 PUSH1 0x4 MSTORE PUSH1 0x24 PUSH1 0x0 REVERT JUMPDEST PUSH1 0x40 DUP2 ADD SWAP1 DUP2 LT PUSH8 0xFFFFFFFFFFFFFFFF DUP3 GT OR PUSH2 0x651 JUMPI PUSH1 0x40 MSTORE JUMP JUMPDEST SWAP1 PUSH1 0x1F DUP1 NOT SWAP2 ADD AND DUP2 ADD SWAP1 DUP2 LT PUSH8 0xFFFFFFFFFFFFFFFF DUP3 GT OR PUSH2 0x651 JUMPI PUSH1 0x40 MSTORE JUMP JUMPDEST SWAP1 DUP2 PUSH1 0x20 SWAP2 SUB SLT PUSH2 0x239 JUMPI MLOAD DUP1 ISZERO ISZERO DUP2 SUB PUSH2 0x239 JUMPI SWAP1 JUMP JUMPDEST SWAP2 SWAP1 DUP2 LT ISZERO PUSH2 0x6CD JUMPI PUSH1 0x5 SHL ADD SWAP1 JUMP JUMPDEST PUSH4 0x4E487B71 PUSH1 0xE0 SHL PUSH1 0x0 MSTORE PUSH1 0x32 PUSH1 0x4 MSTORE PUSH1 0x24 PUSH1 0x0 REVERT JUMPDEST DUP1 MLOAD ISZERO PUSH2 0x6CD JUMPI PUSH1 0x20 ADD SWAP1 JUMP JUMPDEST SWAP1 DUP2 MLOAD DUP1 DUP3 MSTORE PUSH1 0x20 DUP1 DUP1 SWAP4 ADD SWAP4 ADD SWAP2 PUSH1 0x0 JUMPDEST DUP3 DUP2 LT PUSH2 0x710 JUMPI POP POP POP POP SWAP1 JUMP JUMPDEST DUP4 MLOAD DUP6 MSTORE SWAP4 DUP2 ADD SWAP4 SWAP3 DUP2 ADD SWAP3 PUSH1 0x1 ADD PUSH2 0x702 JUMP INVALID LOG2 PUSH5 0x6970667358 0x22 SLT KECCAK256 DUP1 0x26 0xD5 LOG4 0xC7 AND DUP9 CALLDATALOAD CALLDATACOPY PUSH29 0xBC652D9D06D100F0A1F96E6CD14ADD4BB6CE542FED5064736F6C634300 ADDMOD EQ STOP CALLER "},"methodIdentifiers":{"executeFlashLoan(address,uint256,bytes)":"f3df1253","executeOperation(address[],uint256[],uint256[],address,bytes)":"920f5c84","lendingPool()":"a59a9973","owner()":"8da5cb5b"}}}}}