{"contracts/FlashLoanArbitrage.sol":{"FlashLoanArbitrage":{"abi":[{"inputs":[{"internalType":"address","name":"_lendingPool","type":"address"},{"internalType":"address","name":"_dai","type":"address"}],"stateMutability":"nonpayable","type":"constructor"},{"inputs":[],"name":"dai","outputs":[{"internalType":"address","name":"","type":"address"}],"stateMutability":"view","type":"function"},{"inputs":[{"internalType":"uint256","name":"amount","type":"uint256"}],"name":"doFlashLoan","outputs":[],"stateMutability":"nonpayable","type":"function"},{"inputs":[{"internalType":"address[]","name":"assets","type":"address[]"},{"internalType":"uint256[]","name":"amounts","type":"uint256[]"},{"internalType":"uint256[]","name":"premiums","type":"uint256[]"},{"internalType":"address","name":"initiator","type":"address"},{"internalType":"bytes","name":"params","type":"bytes"}],"name":"executeOperation","outputs":[{"internalType":"bool","name":"","type":"bool"}],"stateMutability":"nonpayable","type":"function"},{"inputs":[],"name":"lendingPool","outputs":[{"internalType":"contract ILendingPool","name":"","type":"address"}],"stateMutability":"view","type":"function"},{"inputs":[],"name":"owner","outputs":[{"internalType":"address","name":"","type":"address"}],"stateMutability":"view","type":"function"}],"evm":{"bytecode":{"linkReferences":{},"object":"60803461009257601f61064138819003918201601f19168301916001600160401b0383118484101761009757808492604094855283398101031261009257610052602061004b836100ad565b92016100ad565b9060018060a01b0319913383600054161760005560018060a01b038092168360015416176001551690600254161760025560405161057f90816100c28239f35b600080fd5b634e487b7160e01b600052604160045260246000fd5b51906001600160a01b03821682036100925756fe608060408181526004918236101561001657600080fd5b600092833560e01c9182638da5cb5b1461045657508163920f5c8414610286578163a59a99731461025d578163e0eb0aab14610087575063f4b9fa751461005c57600080fd5b3461008357816003193601126100835760025490516001600160a01b039091168152602090f35b5080fd5b919050346102595760209160031983813601126102555784546001600160a01b03949085163303610227578351916100be836104d6565b60018084528284018336823787600254166100d886610508565b5286516100e4816104d6565b82815284368183013786356100f882610508565b52875192610105846104d6565b8084528536818601378a61011885610508565b528981541696873b15610223579593918b979593919a8a519b8c9863ab9c4b5d60e01b8a5260e48a0190308d8c015260e060248c0152518091526101048a0194928b905b8282106101f5575050505050610196879593610186848b979594868a8a97030160448b0152610515565b9084888303016064890152610515565b30608487015285810392830160a4870152528260c485015201925af180156101eb576101c0578380f35b67ffffffffffffffff83116101d85750523880808380f35b634e487b7160e01b845260419052602483fd5b82513d86823e3d90fd5b929584989a9c50899b5098869295979984829396511681520197019201928d999795938f9b9997959261015c565b8b80fd5b9050606492519162461bcd60e51b835282015260096024820152682737ba1037bbb732b960b91b6044820152fd5b8480fd5b8280fd5b50503461008357816003193601126100835760015490516001600160a01b039091168152602090f35b9050346102595760a03660031901126102595767ffffffffffffffff928135848111610083576102b9903690840161047a565b92906024958635818111610255576102d4903690850161047a565b9095604435838111610452576102ed903690870161047a565b90946001600160a01b03939091906064358581160361044e5760843586811161041057366023820112156104105780890135878111610414573691018d011161044e57885b8481106103435760208c5160018152f35b61034e81838d6104b0565b3561035a82858b6104b0565b35810180911161043c5761036f8287876104b0565b3590878216809203610223578a918f918f928e938b6001541690519563095ea7b360e01b87528601528401528260448160209485945af18015610432576103d6575b505060001981146103c457600101610332565b634e487b7160e01b8a52601189528c8afd5b803d821161042b575b601f8101601f191683018a811184821017610418578f528201829003126104145751801515036104105738806103b1565b8980fd5b8a80fd5b50634e487b7160e01b8d5260418c528f8dfd5b503d6103df565b8e513d8e823e3d90fd5b634e487b7160e01b8b5260118a528d8bfd5b8880fd5b8680fd5b84903461008357816003193601126100835790546001600160a01b03168152602090f35b9181601f840112156104ab5782359167ffffffffffffffff83116104ab576020808501948460051b0101116104ab57565b600080fd5b91908110156104c05760051b0190565b634e487b7160e01b600052603260045260246000fd5b6040810190811067ffffffffffffffff8211176104f257604052565b634e487b7160e01b600052604160045260246000fd5b8051156104c05760200190565b90815180825260208080930193019160005b828110610535575050505090565b83518552938101939281019260010161052756fea264697066735822122083a5fe7b21c9b95fce8990e6cedaad8135f13a5a473759de9efa4ee2b4ed5ab464736f6c63430008140033","opcodes":"PUSH1 0x80 CALLVALUE PUSH2 0x92 JUMPI PUSH1 0x1F PUSH2 0x641 CODESIZE DUP2 SWAP1 SUB SWAP2 DUP3 ADD PUSH1 0x1F NOT AND DUP4 ADD SWAP2 PUSH1 0x1 PUSH1 0x1 PUSH1 0x40 SHL SUB DUP4 GT DUP5 DUP5 LT OR PUSH2 0x97 JUMPI DUP1 DUP5 SWAP3 PUSH1 0x40 SWAP5 DUP6 MSTORE DUP4 CODECOPY DUP2 ADD SUB SLT PUSH2 0x92 JUMPI PUSH2 0x52 PUSH1 0x20 PUSH2 0x4B DUP4 PUSH2 0xAD JUMP JUMPDEST SWAP3 ADD PUSH2 0xAD JUMP JUMPDEST SWAP1 PUSH1 0x1 DUP1 PUSH1 0xA0 SHL SUB NOT SWAP2 CALLER DUP4 PUSH1 0x0 SLOAD AND OR PUSH1 0x0 SSTORE PUSH1 0x1 DUP1 PUSH1 0xA0 SHL SUB DUP1 SWAP3 AND DUP4 PUSH1 0x1 SLOAD AND OR PUSH1 0x1 SSTORE AND SWAP1 PUSH1 0x2 SLOAD AND OR PUSH1 0x2 SSTORE PUSH1 0x40 MLOAD PUSH2 0x57F SWAP1 DUP2 PUSH2 0xC2 DUP3 CODECOPY RETURN JUMPDEST PUSH1 0x0 DUP1 REVERT JUMPDEST PUSH4 0x4E487B71 PUSH1 0xE0 SHL PUSH1 0x0 MSTORE PUSH1 0x41 PUSH1 0x4 MSTORE PUSH1 0x24 PUSH1 0x0 REVERT JUMPDEST MLOAD SWAP1 PUSH1 0x1 PUSH1 0x1 PUSH1 0xA0 SHL SUB DUP3 AND DUP3 SUB PUSH2 0x92 JUMPI JUMP INVALID PUSH1 0x80 PUSH1 0x40 DUP2 DUP2 MSTORE PUSH1 0x4 SWAP2 DUP3 CALLDATASIZE LT ISZERO PUSH2 0x16 JUMPI PUSH1 0x0 DUP1 REVERT JUMPDEST PUSH1 0x0 SWAP3 DUP4 CALLDATALOAD PUSH1 0xE0 SHR SWAP2 DUP3 PUSH4 0x8DA5CB5B EQ PUSH2 0x456 JUMPI POP DUP2 PUSH4 0x920F5C84 EQ PUSH2 0x286 JUMPI DUP2 PUSH4 0xA59A9973 EQ PUSH2 0x25D JUMPI DUP2 PUSH4 0xE0EB0AAB EQ PUSH2 0x87 JUMPI POP PUSH4 0xF4B9FA75 EQ PUSH2 0x5C JUMPI PUSH1 0x0 DUP1 REVERT JUMPDEST CALLVALUE PUSH2 0x83 JUMPI DUP2 PUSH1 0x3 NOT CALLDATASIZE ADD SLT PUSH2 0x83 JUMPI PUSH1 0x2 SLOAD SWAP1 MLOAD PUSH1 0x1 PUSH1 0x1 PUSH1 0xA0 SHL SUB SWAP1 SWAP2 AND DUP2 MSTORE PUSH1 0x20 SWAP1 RETURN JUMPDEST POP DUP1 REVERT JUMPDEST SWAP2 SWAP1 POP CALLVALUE PUSH2 0x259 JUMPI PUSH1 0x20 SWAP2 PUSH1 0x3 NOT DUP4 DUP2 CALLDATASIZE ADD SLT PUSH2 0x255 JUMPI DUP5 SLOAD PUSH1 0x1 PUSH1 0x1 PUSH1 0xA0 SHL SUB SWAP5 SWAP1 DUP6 AND CALLER SUB PUSH2 0x227 JUMPI DUP4 MLOAD SWAP2 PUSH2 0xBE DUP4 PUSH2 0x4D6 JUMP JUMPDEST PUSH1 0x1 DUP1 DUP5 MSTORE DUP3 DUP5 ADD DUP4 CALLDATASIZE DUP3 CALLDATACOPY DUP8 PUSH1 0x2 SLOAD AND PUSH2 0xD8 DUP7 PUSH2 0x508 JUMP JUMPDEST MSTORE DUP7 MLOAD PUSH2 0xE4 DUP2 PUSH2 0x4D6 JUMP JUMPDEST DUP3 DUP2 MSTORE DUP5 CALLDATASIZE DUP2 DUP4 ADD CALLDATACOPY DUP7 CALLDATALOAD PUSH2 0xF8 DUP3 PUSH2 0x508 JUMP JUMPDEST MSTORE DUP8 MLOAD SWAP3 PUSH2 0x105 DUP5 PUSH2 0x4D6 JUMP JUMPDEST DUP1 DUP5 MSTORE DUP6 CALLDATASIZE DUP2 DUP7 ADD CALLDATACOPY DUP11 PUSH2 0x118 DUP6 PUSH2 0x508 JUMP JUMPDEST MSTORE DUP10 DUP2 SLOAD AND SWAP7 DUP8 EXTCODESIZE ISZERO PUSH2 0x223 JUMPI SWAP6 SWAP4 SWAP2 DUP12 SWAP8 SWAP6 SWAP4 SWAP2 SWAP11 DUP11 MLOAD SWAP12 DUP13 SWAP9 PUSH4 0xAB9C4B5D PUSH1 0xE0 SHL DUP11 MSTORE PUSH1 0xE4 DUP11 ADD SWAP1 ADDRESS DUP14 DUP13 ADD MSTORE PUSH1 0xE0 PUSH1 0x24 DUP13 ADD MSTORE MLOAD DUP1 SWAP2 MSTORE PUSH2 0x104 DUP11 ADD SWAP5 SWAP3 DUP12 SWAP1 JUMPDEST DUP3 DUP3 LT PUSH2 0x1F5 JUMPI POP POP POP POP POP PUSH2 0x196 DUP8 SWAP6 SWAP4 PUSH2 0x186 DUP5 DUP12 SWAP8 SWAP6 SWAP5 DUP7 DUP11 DUP11 SWAP8 SUB ADD PUSH1 0x44 DUP12 ADD MSTORE PUSH2 0x515 JUMP JUMPDEST SWAP1 DUP5 DUP9 DUP4 SUB ADD PUSH1 0x64 DUP10 ADD MSTORE PUSH2 0x515 JUMP JUMPDEST ADDRESS PUSH1 0x84 DUP8 ADD MSTORE DUP6 DUP2 SUB SWAP3 DUP4 ADD PUSH1 0xA4 DUP8 ADD MSTORE MSTORE DUP3 PUSH1 0xC4 DUP6 ADD MSTORE ADD SWAP3 GAS CALL DUP1 ISZERO PUSH2 0x1EB JUMPI PUSH2 0x1C0 JUMPI DUP4 DUP1 RETURN JUMPDEST PUSH8 0xFFFFFFFFFFFFFFFF DUP4 GT PUSH2 0x1D8 JUMPI POP MSTORE CODESIZE DUP1 DUP1 DUP4 DUP1 RETURN JUMPDEST PUSH4 0x4E487B71 PUSH1 0xE0 SHL DUP5 MSTORE PUSH1 0x41 SWAP1 MSTORE PUSH1 0x24 DUP4 REVERT JUMPDEST DUP3 MLOAD RETURNDATASIZE DUP7 DUP3 RETURNDATACOPY RETURNDATASIZE SWAP1 REVERT JUMPDEST SWAP3 SWAP6 DUP5 SWAP9 SWAP11 SWAP13 POP DUP10 SWAP12 POP SWAP9 DUP7 SWAP3 SWAP6 SWAP8 SWAP10 DUP5 DUP3 SWAP4 SWAP7 MLOAD AND DUP2 MSTORE ADD SWAP8 ADD SWAP3 ADD SWAP3 DUP14 SWAP10 SWAP8 SWAP6 SWAP4 DUP16 SWAP12 SWAP10 SWAP8 SWAP6 SWAP3 PUSH2 0x15C JUMP JUMPDEST DUP12 DUP1 REVERT JUMPDEST SWAP1 POP PUSH1 0x64 SWAP3 MLOAD SWAP2 PUSH3 0x461BCD PUSH1 0xE5 SHL DUP4 MSTORE DUP3 ADD MSTORE PUSH1 0x9 PUSH1 0x24 DUP3 ADD MSTORE PUSH9 0x2737BA1037BBB732B9 PUSH1 0xB9 SHL PUSH1 0x44 DUP3 ADD MSTORE REVERT JUMPDEST DUP5 DUP1 REVERT JUMPDEST DUP3 DUP1 REVERT JUMPDEST POP POP CALLVALUE PUSH2 0x83 JUMPI DUP2 PUSH1 0x3 NOT CALLDATASIZE ADD SLT PUSH2 0x83 JUMPI PUSH1 0x1 SLOAD SWAP1 MLOAD PUSH1 0x1 PUSH1 0x1 PUSH1 0xA0 SHL SUB SWAP1 SWAP2 AND DUP2 MSTORE PUSH1 0x20 SWAP1 RETURN JUMPDEST SWAP1 POP CALLVALUE PUSH2 0x259 JUMPI PUSH1 0xA0 CALLDATASIZE PUSH1 0x3 NOT ADD SLT PUSH2 0x259 JUMPI PUSH8 0xFFFFFFFFFFFFFFFF SWAP3 DUP2 CALLDATALOAD DUP5 DUP2 GT PUSH2 0x83 JUMPI PUSH2 0x2B9 SWAP1 CALLDATASIZE SWAP1 DUP5 ADD PUSH2 0x47A JUMP JUMPDEST SWAP3 SWAP1 PUSH1 0x24 SWAP6 DUP7 CALLDATALOAD DUP2 DUP2 GT PUSH2 0x255 JUMPI PUSH2 0x2D4 SWAP1 CALLDATASIZE SWAP1 DUP6 ADD PUSH2 0x47A JUMP JUMPDEST SWAP1 SWAP6 PUSH1 0x44 CALLDATALOAD DUP4 DUP2 GT PUSH2 0x452 JUMPI PUSH2 0x2ED SWAP1 CALLDATASIZE SWAP1 DUP8 ADD PUSH2 0x47A JUMP JUMPDEST SWAP1 SWAP5 PUSH1 0x1 PUSH1 0x1 PUSH1 0xA0 SHL SUB SWAP4 SWAP1 SWAP2 SWAP1 PUSH1 0x64 CALLDATALOAD DUP6 DUP2 AND SUB PUSH2 0x44E JUMPI PUSH1 0x84 CALLDATALOAD DUP7 DUP2 GT PUSH2 0x410 JUMPI CALLDATASIZE PUSH1 0x23 DUP3 ADD SLT ISZERO PUSH2 0x410 JUMPI DUP1 DUP10 ADD CALLDATALOAD DUP8 DUP2 GT PUSH2 0x414 JUMPI CALLDATASIZE SWAP2 ADD DUP14 ADD GT PUSH2 0x44E JUMPI DUP9 JUMPDEST DUP5 DUP2 LT PUSH2 0x343 JUMPI PUSH1 0x20 DUP13 MLOAD PUSH1 0x1 DUP2 MSTORE RETURN JUMPDEST PUSH2 0x34E DUP2 DUP4 DUP14 PUSH2 0x4B0 JUMP JUMPDEST CALLDATALOAD PUSH2 0x35A DUP3 DUP6 DUP12 PUSH2 0x4B0 JUMP JUMPDEST CALLDATALOAD DUP2 ADD DUP1 SWAP2 GT PUSH2 0x43C JUMPI PUSH2 0x36F DUP3 DUP8 DUP8 PUSH2 0x4B0 JUMP JUMPDEST CALLDATALOAD SWAP1 DUP8 DUP3 AND DUP1 SWAP3 SUB PUSH2 0x223 JUMPI DUP11 SWAP2 DUP16 SWAP2 DUP16 SWAP3 DUP15 SWAP4 DUP12 PUSH1 0x1 SLOAD AND SWAP1 MLOAD SWAP6 PUSH4 0x95EA7B3 PUSH1 0xE0 SHL DUP8 MSTORE DUP7 ADD MSTORE DUP5 ADD MSTORE DUP3 PUSH1 0x44 DUP2 PUSH1 0x20 SWAP5 DUP6 SWAP5 GAS CALL DUP1 ISZERO PUSH2 0x432 JUMPI PUSH2 0x3D6 JUMPI JUMPDEST POP POP PUSH1 0x0 NOT DUP2 EQ PUSH2 0x3C4 JUMPI PUSH1 0x1 ADD PUSH2 0x332 JUMP JUMPDEST PUSH4 0x4E487B71 PUSH1 0xE0 SHL DUP11 MSTORE PUSH1 0x11 DUP10 MSTORE DUP13 DUP11 REVERT JUMPDEST DUP1 RETURNDATASIZE DUP3 GT PUSH2 0x42B JUMPI JUMPDEST PUSH1 0x1F DUP2 ADD PUSH1 0x1F NOT AND DUP4 ADD DUP11 DUP2 GT DUP5 DUP3 LT OR PUSH2 0x418 JUMPI DUP16 MSTORE DUP3 ADD DUP3 SWAP1 SUB SLT PUSH2 0x414 JUMPI MLOAD DUP1 ISZERO ISZERO SUB PUSH2 0x410 JUMPI CODESIZE DUP1 PUSH2 0x3B1 JUMP JUMPDEST DUP10 DUP1 REVERT JUMPDEST DUP11 DUP1 REVERT JUMPDEST POP PUSH4 0x4E487B71 PUSH1 0xE0 SHL DUP14 MSTORE PUSH1 0x41 DUP13 MSTORE DUP16 DUP14 REVERT JUMPDEST POP RETURNDATASIZE PUSH2 0x3DF JUMP JUMPDEST DUP15 MLOAD RETURNDATASIZE DUP15 DUP3 RETURNDATACOPY RETURNDATASIZE SWAP1 REVERT JUMPDEST PUSH4 0x4E487B71 PUSH1 0xE0 SHL DUP12 MSTORE PUSH1 0x11 DUP11 MSTORE DUP14 DUP12 REVERT JUMPDEST DUP9 DUP1 REVERT JUMPDEST DUP7 DUP1 REVERT JUMPDEST DUP5 SWAP1 CALLVALUE PUSH2 0x83 JUMPI DUP2 PUSH1 0x3 NOT CALLDATASIZE ADD SLT PUSH2 0x83 JUMPI SWAP1 SLOAD PUSH1 0x1 PUSH1 0x1 PUSH1 0xA0 SHL SUB AND DUP2 MSTORE PUSH1 0x20 SWAP1 RETURN JUMPDEST SWAP2 DUP2 PUSH1 0x1F DUP5 ADD SLT ISZERO PUSH2 0x4AB JUMPI DUP3 CALLDATALOAD SWAP2 PUSH8 0xFFFFFFFFFFFFFFFF DUP4 GT PUSH2 0x4AB JUMPI PUSH1 0x20 DUP1 DUP6 ADD SWAP5 DUP5 PUSH1 0x5 SHL ADD ADD GT PUSH2 0x4AB JUMPI JUMP JUMPDEST PUSH1 0x0 DUP1 REVERT JUMPDEST SWAP2 SWAP1 DUP2 LT ISZERO PUSH2 0x4C0 JUMPI PUSH1 0x5 SHL ADD SWAP1 JUMP JUMPDEST PUSH4 0x4E487B71 PUSH1 0xE0 SHL PUSH1 0x0 MSTORE PUSH1 0x32 PUSH1 0x4 MSTORE PUSH1 0x24 PUSH1 0x0 REVERT JUMPDEST PUSH1 0x40 DUP2 ADD SWAP1 DUP2 LT PUSH8 0xFFFFFFFFFFFFFFFF DUP3 GT OR PUSH2 0x4F2 JUMPI PUSH1 0x40 MSTORE JUMP JUMPDEST PUSH4 0x4E487B71 PUSH1 0xE0 SHL PUSH1 0x0 MSTORE PUSH1 0x41 PUSH1 0x4 MSTORE PUSH1 0x24 PUSH1 0x0 REVERT JUMPDEST DUP1 MLOAD ISZERO PUSH2 0x4C0 JUMPI PUSH1 0x20 ADD SWAP1 JUMP JUMPDEST SWAP1 DUP2 MLOAD DUP1 DUP3 MSTORE PUSH1 0x20 DUP1 DUP1 SWAP4 ADD SWAP4 ADD SWAP2 PUSH1 0x0 JUMPDEST DUP3 DUP2 LT PUSH2 0x535 JUMPI POP POP POP POP SWAP1 JUMP JUMPDEST DUP4 MLOAD DUP6 MSTORE SWAP4 DUP2 ADD SWAP4 SWAP3 DUP2 ADD SWAP3 PUSH1 0x1 ADD PUSH2 0x527 JUMP INVALID LOG2 PUSH5 0x6970667358 0x22 SLT KECCAK256 DUP4 0xA5 INVALID PUSH28 0x21C9B95FCE8990E6CEDAAD8135F13A5A473759DE9EFA4EE2B4ED5AB4 PUSH5 0x736F6C6343 STOP ADDMOD EQ STOP CALLER "},"methodIdentifiers":{"dai()":"f4b9fa75","doFlashLoan(uint256)":"e0eb0aab","executeOperation(address[],uint256[],uint256[],address,bytes)":"920f5c84","lendingPool()":"a59a9973","owner()":"8da5cb5b"}}}}}