{
  "_format": "hh-sol-artifact-1",
  "contractName": "LiquidationArbitrage",
  "sourceName": "contracts/LiquidationArbitrage.sol",
  "abi": [
    {
      "inputs": [
        {
          "internalType": "address",
          "name": "_lendingPool",
          "type": "address"
        }
      ],
      "stateMutability": "nonpayable",
      "type": "constructor"
    },
    {
      "inputs": [
        {
          "internalType": "address",
          "name": "asset",
          "type": "address"
        },
        {
          "internalType": "uint256",
          "name": "amount",
          "type": "uint256"
        },
        {
          "internalType": "bytes",
          "name": "params",
          "type": "bytes"
        }
      ],
      "name": "executeFlashLoan",
      "outputs": [],
      "stateMutability": "nonpayable",
      "type": "function"
    },
    {
      "inputs": [
        {
          "internalType": "address[]",
          "name": "assets",
          "type": "address[]"
        },
        {
          "internalType": "uint256[]",
          "name": "amounts",
          "type": "uint256[]"
        },
        {
          "internalType": "uint256[]",
          "name": "premiums",
          "type": "uint256[]"
        },
        {
          "internalType": "address",
          "name": "",
          "type": "address"
        },
        {
          "internalType": "bytes",
          "name": "params",
          "type": "bytes"
        }
      ],
      "name": "executeOperation",
      "outputs": [
        {
          "internalType": "bool",
          "name": "",
          "type": "bool"
        }
      ],
      "stateMutability": "nonpayable",
      "type": "function"
    },
    {
      "inputs": [],
      "name": "lendingPool",
      "outputs": [
        {
          "internalType": "contract ILendingPool",
          "name": "",
          "type": "address"
        }
      ],
      "stateMutability": "view",
      "type": "function"
    },
    {
      "inputs": [],
      "name": "owner",
      "outputs": [
        {
          "internalType": "address",
          "name": "",
          "type": "address"
        }
      ],
      "stateMutability": "view",
      "type": "function"
    }
  ],
  "bytecode": "0x60803461007a57601f6107f038819003918201601f19168301916001600160401b0383118484101761007f5780849260209460405283398101031261007a57516001600160a01b0381169081900361007a5760018060a01b031933816000541617600055600154161760015560405161075a90816100968239f35b600080fd5b634e487b7160e01b600052604160045260246000fdfe608080604052600436101561001357600080fd5b600090813560e01c9081638da5cb5b146105a657508063920f5c8414610267578063a59a99731461023e5763f3df12531461004d57600080fd5b346101db57600319906060368301126101db576001600160a01b03600435818116908190036102395760443567ffffffffffffffff8111610235576100969036906004016105fb565b83859392935416330361020457604051926100b084610667565b600180855260209384860190853683376100c9876106e3565b526040516100d681610667565b8281528536818301376024356100eb826106e3565b52604051926100f984610667565b8084528636818601378961010c856106e3565b528881541697883b156102005760405163ab9c4b5d60e01b815230600482015260e06024820152905160e4820181905290996101048b01949291908c905b8282106101e957505050505086888a88828e8a849b859b61018d859c61017d8d889d8b9f8a8a91030160448b01526106f0565b90868883030160648901526106f0565b933060848701528585030160a486015281845285840137848482840101528460c4840152601f8019910116010301925af180156101de576101cb5750f35b6101d49061063d565b6101db5780f35b80fd5b6040513d84823e3d90fd5b845181168752958a0195938a01939083019061014a565b8a80fd5b60405162461bcd60e51b81526020600482015260096024820152682737ba1037bbb732b960b91b6044820152606490fd5b8380fd5b600080fd5b50346101db57806003193601126101db576001546040516001600160a01b039091168152602090f35b50346101db5760a03660031901126101db5767ffffffffffffffff906004358281116105a25761029b9036906004016105ca565b602493919335828111610235576102b69036906004016105ca565b60449591953584811161059e576102d19036906004016105ca565b9690946064356001600160a01b0381160361055557608435908111610555576102fe9036906004016105fb565b6001546001600160a01b03163303610559578160a091810103126105555761032581610629565b61033160208301610629565b9061033e60408401610629565b9261034b60808201610629565b60405163095ea7b360e01b81526001600160a01b0382166004820152606083013560248201529091906020818d81806044810103916001600160a01b038a165af1801561054a5761052b575b506001600160a01b0382163b156102005760405162a718a960e01b81526001600160a01b0393841660048201529383166024850152938216604484015260609093013560648301526084820189905290918891839160a49183918591165af180156105205761050d575b50855b84811061041657602060405160018152f35b6104218184846106bd565b3561042d828a896106bd565b3581018091116104f9576104428287876106bd565b356001600160a01b03811681036104f55760015460405163095ea7b360e01b81526001600160a01b0391821660048201526024810193909352602091839160449183918d91165af180156104ea576104bb575b5060001981146104a757600101610404565b634e487b7160e01b87526011600452602487fd5b6104dc9060203d6020116104e3575b6104d48183610683565b8101906106a5565b5038610495565b503d6104ca565b6040513d8a823e3d90fd5b8880fd5b634e487b7160e01b88526011600452602488fd5b6105199096919661063d565b9438610401565b6040513d89823e3d90fd5b6105439060203d6020116104e3576104d48183610683565b5038610397565b6040513d8e823e3d90fd5b8680fd5b60405162461bcd60e51b815260206004820152601b60248201527f43616c6c6572206d757374206265206c656e64696e6720706f6f6c00000000006044820152606490fd5b8580fd5b5080fd5b9050346105a257816003193601126105a25790546001600160a01b03168152602090f35b9181601f840112156102395782359167ffffffffffffffff8311610239576020808501948460051b01011161023957565b9181601f840112156102395782359167ffffffffffffffff8311610239576020838186019501011161023957565b35906001600160a01b038216820361023957565b67ffffffffffffffff811161065157604052565b634e487b7160e01b600052604160045260246000fd5b6040810190811067ffffffffffffffff82111761065157604052565b90601f8019910116810190811067ffffffffffffffff82111761065157604052565b90816020910312610239575180151581036102395790565b91908110156106cd5760051b0190565b634e487b7160e01b600052603260045260246000fd5b8051156106cd5760200190565b90815180825260208080930193019160005b828110610710575050505090565b83518552938101939281019260010161070256fea26469706673582212208026d5a4c7168835377cbc652d9d06d100f0a1f96e6cd14add4bb6ce542fed5064736f6c63430008140033",
  "linkReferences": {},
  "deployedLinkReferences": {}
}